:02000002B0004C
:1040000000400B00BC530B00000006000C00050232
:0840100004010410000000008F
:04401800BC500B008D
:10401C0009480A49884208B505D0094A824202D0AB
:10402C00121A00F093FF0748074A0021121A00F0F9
:10403C009BFF014808BD00BF40E6032028530B003E
:10404C00ACE60320ACE60320EDE7032070B5074E89
:10405C00074C00F047FEA41BA4080025AC4200D17D
:10406C0070BD56F8043B98470135F7E7DC520B005E
:10407C0000530B0000F014B808B500F037F8BDE899
:10408C00084000F0E7BD00F02BBA00F031BA007820
:10409C00B0FA80F0400970470123037070470000AC
:1040AC0010B50121052000F08DFE0021022000F04A
:1040BC0089FE00F049FD4FF4165100F035FD0A4C15
:1040CC0000F042FD00F034FD28B900F03DFD214622
:1040DC0000F01FFCF4E700F00DFFBDE810404FF4BA
:1040EC00165100F0CBBC00BFD0500B0038B500F01F
:1040FC0001FF03681B69984780B300F0FBFE03685F
:10410C005B699847C4B200F01FFD214600F00BFC20
:10411C00302C05D10021BDE83840052000F063BEED
:10412C00312C01D10121F6E73F2C17D100F0E2FE32
:10413C000546022000F070FE041E0DDA2D212846E3
:10414C0000F0D8FB614228460A2200F0F6FB284614
:10415C00BDE8384000F0D1BB2146F4E738BD000083
:10416C0010B5074B074A9A600024C3E900440320AA
:10417C0000F02AF921460120BDE8104000F02CB9CE
:10418C00ACE603200000FFFF08B5024B1B685B6C1C
:10419C00019308BD4802030008B5024B1B685B681D
:1041AC00019308BD1802030008B5024B1B685B693C
:1041BC00019308BD1802030008B5024B1B689B68ED
:1041CC00019308BD2C02030008B5024B1B68DB6889
:1041DC00019308BD2C02030008B5024B1B681B6938
:1041EC00019308BD2C02030008B5024B1B685B69E8
:1041FC00019308BD2C02030008B5024B1B681B6A17
:10420C00019308BD2802030008B5024B1B685B6ACA
:10421C00019308BD2802030008B5024B1B689B6A7A
:10422C00019308BD2802030008B5024B1B68DB6A2A
:10423C00019308BD2802030008B5024B1B681B6BD9
:10424C00019308BD2802030008B5024B1B685B6B89
:10425C00019308BD2802030008B5024B1B681B6CB8
:10426C00019308BD2802030008B5024B1B685B696B
:10427C00019308BD6402030008B5024B1B689B68E0
:10428C00019308BD6802030008B5024B1B68DB688C
:10429C00019308BD6802030008B5024B1B68DB697B
:1042AC00019308BD3002030008B5024B1B681B6A62
:1042BC00019308BD3002030008B5024B1B68DB6894
:1042CC00019308BD3C02030008B5024B1B681B6937
:1042DC00019308BD3C02030008B5024B1B685B69E7
:1042EC00019308BD3C02030008B5024B1B689B6997
:1042FC00019308BD3C02030008B5024B1B68DB6947
:10430C00019308BD3C02030008B5024B1B681B6AF5
:10431C00019308BD3C02030008B5024B1B689B6A65
:10432C00019308BD3C02030008B5024B1B68DB6A15
:10433C00019308BD3C02030008B5024B1B681B6CC3
:10434C00019308BD3C02030008B5024B1B681B68B7
:10435C00019308BD4C02030008B5024B1B685B6857
:10436C00019308BD4C02030008B5024B1B681B6986
:10437C00019308BD4C02030008B5024B1B685B6936
:10438C00019308BD4C02030008B5024B1B689B69E6
:10439C00019308BD4C02030008B5024B1B68DB6996
:1043AC00019308BD4C02030008B5024B1B681B6A45
:1043BC00019308BD4C02030008B5024B1B689B6AB5
:1043CC00019308BD4C02030008B5024B1B685B68E7
:1043DC00019308BD2002030008B5024B1B68DB6A81
:1043EC00019308BD2002030008B5034B1B68D3F8EA
:1043FC008830019308BD00002002030008B5034B70
:10440C001B68D3F89430019308BD00002002030010
:10441C0008B5024B1B68DB6B019308BD440203001B
:10442C0008B5024B1B685B68019308BD4002030092
:10443C0008B5024B1B689B68019308BD4002030042
:10444C0008B5024B1B68DB68019308BD40020300F2
:10445C0008B5024B1B681B69019308BD40020300A1
:10446C0008B5024B1B685B69019308BD4002030051
:10447C0008B5024B1B689B69019308BD4002030001
:10448C0008B5024B1B68DB69019308BD40020300B1
:10449C0008B5024B1B681B6A019308BD4002030060
:1044AC0008B5024B1B681B6B019308BD400203004F
:1044BC0008B5024B1B685B6B019308BD40020300FF
:1044CC0008B5024B1B681B6C019308BD400203002E
:1044DC0008B5024B1B685B6C019308BD40020300DE
:1044EC0008B5024B1B681B68019308BD1C02030036
:1044FC0008B5024B1B685B68019308BD1C020300E6
:10450C0008B5024B1B681B6C019308BD1C02030011
:10451C0008B5024B1B685B6C019308BD1C020300C1
:10452C00024800230360FFF72FBE00BFB8E603204C
:10453C00002240681146FFF7ABBF002240681146CD
:10454C00FFF7B6BF40680022FFF7AABF4068002201
:10455C0081F00101FFF794BF002340681A46194609
:10456C00FFF786BF002340681A461946FFF778BF4D
:10457C00002240681146FFF76BBF002240681146CD
:10458C00FFF756BF406800220221FFF759BF0023F6
:10459C0040681A46FFF744BF024B03225A60024A96
:1045AC001A607047BCE6032000510B007047F8B549
:1045BC00064615460C468F18BC4206D0336814F8D4
:1045CC00011B9B6830469847F6E72846F8BD007CEF
:1045DC000022FFF711BE007C0021FFF715BE007C06
:1045EC000021FFF719BE007C0021FFF71DBE007CE7
:1045FC000021FFF721BE10B514210446FFF745FD3D
:10460C00204610BD38B5044615464FF47A73002287
:10461C00C4E90123094B2174084623602946FFF79E
:10462C001BFEBF3008D16B69DB0705D56868FFF747
:10463C005FFFE868FFF75CFF204638BD3C510B007C
:10464C00704710B518210446FFF71FFD204610BD1A
:10465C00F0B5037D062B8DB00E4600F104074FF02C
:10466C00000412D000F1080515F8011D0A2230468D
:10467C0000F063F9AF42044419D0002CF4D02E2181
:10468C00304600F037F90444EEE72F236A463946EA
:10469C000A208DF80040FFF7E7FD684600F09AFC11
:1046AC0033680246DB686946304698470446204624
:1046BC000DB0F0BD10B5054B0446112240F8043B7B
:1046CC00002100F051FC204610BD00BF64510B00CE
:1046DC000346074A10B543F8042B01F1100251F8B8
:1046EC00044B43F8044B9142F9D10A781A7010BD6F
:1046FC0064510B0010B59DF8084044EA032343EACB
:10470C00024242EA016104234160037510BD0000BE
:10471C0007B5064B0360CB7800938B784A78097801
:10472C00FFF7E8FF03B05DF804FB00BF64510B001A
:10473C00014B024A1A607047C4E6032070510B000B
:10474C00002340681A46FFF76BBE40680022022126
:10475C00FFF776BE002240681146FFF769BE0022C3
:10476C0040681146FFF774BE002340681A4619468C
:10477C00FFF776BE002340681A461946FFF778BE4D
:10478C0040680021FFF79CBE40680021FFF7A0BEE7
:10479C004068002281F00101FFF772BE40680022E0
:1047AC00FFF77EBE002240681146FFF781BE002253
:1047BC0040681146FFF76CBE2DE9F04395B01446E6
:1047CC000D460746FFF776FF00211C220DA800912D
:1047DC0000F0CAFB40230C9320466B460CAA002128
:1047EC00FFF752FD044600284BD1024601216868B0
:1047FC00FFF72EFE0221804622466868FFF728FE4E
:10480C00009E81462146002E3BD0002939D1736889
:10481C00022B03D00A2B11D0F669F4E7B8F1000F84
:10482C00FAD0716906A8043107ADFFF771FF0FCDFF
:10483C003C1D0FC42B6823704146EDE7B9F1000F06
:10484C00EAD07469102201A800F08EFB06238DF8C3
:10485C00143001AD04F108031834186859682A465D
:10486C0003C20833A3421546F7D101A906A807AD28
:10487C00FFF72EFF0FCD3C1D0FC42B68237049464C
:10488C00CAE70098FFF7F8FC384615B0BDE8F0838E
:10489C00024B034A1A6000225A607047C8E6032094
:1048AC007C510B00F8B506460D468F180024BD420E
:1048BC000CD0336815F8011B9B6830469847031ED3
:1048CC0001DB1C44F3E7002C08BF1C462046F8BD56
:1048DC0013B50446084659B1019100F07BFB2368DF
:1048EC000199DB680246204602B0BDE8104018472B
:1048FC0002B010BD03689B68184738B50D210546FA
:10490C00FFF7F8FF0A2104462846FFF7F3FF20447F
:10491C0038BD38B50546FFF7DBFF04462846FFF7E0
:10492C00ECFF204438BD38B50546FFF7E3FF0446DD
:10493C002846FFF7E2FF204438BD30B58BB000238A
:10494C00012A8DF8243098BF0A2209AC0D46B1FB20
:10495C00F2F101FB125303F0FF03092B94BF303328
:10496C003733DBB2AA4204F8013DEFD92146FFF7F9
:10497C00AFFF0BB030BD0000014B00229A607047B6
:10498C00D0E6032010B5044608462170FFF784FCDE
:10499C0000236360204610BD054B02221A60054BB4
:1049AC00054A9A600020C3E90000FFF70DBD00BF67
:1049BC00ECE60320E0E603200000FFFF024B1A6840
:1049CC00024B1A60704700BF40E60320F0E603205C
:1049DC0070474174704708B5007CFFF79DFC20EAD6
:1049EC00E07008BD08B5007CFFF76EFC20EAE070B3
:1049FC0008BD08B5007CFFF777FC40EAE07008BD05
:104A0C0008B5007CFFF768FC40EAE07008BD007C4C
:104A1C00FFF772BC37B5457C04462DB1207C03B042
:104A2C00BDE83040FFF748BC007C0191FFF774FCF7
:104A3C0000280199F2DC284603B030BD10B51421D2
:104A4C000446FFF722FB204610BD000010B54FF4C2
:104A5C007A730446084611460022C4E90123044B2C
:104A6C002360012320746374FFF766FC204610BD9D
:104A7C00D4510B00007C0023FFF756BC0022FFF73B
:104A8C00F9BF417470477047704708B50021007C2E
:104A9C00FFF77AFC40EAE07008BD08B50121007C04
:104AAC00FFF772FC40EAE07008BD08B5007CFFF728
:104ABC0063FC20EAE07008BD08B5007CFFF754FCED
:104ACC0020EAE07008BD13B50446007C0191FFF7A5
:104ADC0053FC0028019901DC607C20B1207CFFF79D
:104AEC005BFC20EAE07002B010BD007CFFF75CBC00
:104AFC0010B514210446FFF7C8FA204610BD00007B
:104B0C0010B54FF47A73044608460021C4E901132A
:104B1C00044B23600123207463741146FFF714FCCB
:104B2C00204610BD04520B00007C0022FFF714BC81
:104B3C00007CFFF741BC10B514220446002100F0A4
:104B4C0013FA204610BD000010B50F4C88B003A816
:104B5C00FFF7F1FF2178BFF35B8F11F001010FD14B
:104B6C0020460191FFF793FA019948B103AA07482F
:104B7C00FFF7C6FF2046FFF78FFA054800F0E0F973
:104B8C00024808B010BD00BFF4E60320F8E603208D
:104B9C00934A0B00002240681146FFF759BC0022D3
:104BAC0040681146FFF774BC002240681146FFF7BD
:104BBC007FBC40680022FFF773BC4068002281F084
:104BCC000101FFF75DBC002340681A461946FFF748
:104BDC004FBC002340681A461946FFF741BC00221F
:104BEC0040681146FFF724BC406800220221FFF701
:104BFC0027BC002340681A46FFF712BC024B042264
:104C0C005A60024A1A6070470CE7032034520B00BA
:104C1C00014B1860704700BF44E6032008B50B4BEE
:104C2C0043B1FFF791FF03681B699847002801DD2A
:104C3C00AFF30080064B43B100F05CF903681B69CD
:104C4C009847002801DDAFF3008008BD000000008C
:104C5C000000000008B5FFF7E1FFFFF7A5FA014BD4
:104C6C00186008BD28E703200548064A064908B520
:104C7C00121A00F06BF9054B054A1A6008BD00BF0B
:104C8C0000F4032004F4032024530B0000F403204D
:104C9C001E1C279A07B5002300931A466FF0770164
:104CAC00FFF7ACFB03B05DF804FB000007B54388CD
:104CBC000A2B08D0502B0BD1094B1B684BB103B0FE
:104CCC005DF804EB1847FFF7E5FF03B05DF804FB54
:104CDC00002300931A466FF07701FFF78FFBF4E780
:104CEC0018E7032010B512480021FFF711FC114BF7
:104CFC001A68114B9A42114B0CBF012200221A70F8
:104D0C0001D0FFF7B1FFFFF747FA044600F034F982
:104D1C000B4B13B12046AFF3008000210848FFF77E
:104D2C0077FBBDE8104007480021FFF75DBB00BFD3
:104D3C001D4C0B0000F403201E1C279A14E70320C3
:104D4C0000000000B94C0B00232813B502D9002039
:104D5C0002B010BDA0F10B03022B1AD8174C21780E
:104D6C00BFF35B8F11F001010BD120460191FFF7CE
:104D7C008EF9019928B11248FFF704FE2046FFF77F
:104D8C008BF90F4B1878FFF78FFA0028DFD1012031
:104D9C00DEE7012809D800F06DF80021007CFFF750
:104DAC0053FA80F00100C0B2D2E709380128EED8DE
:104DBC0000F0A0F8007CFFF7A7FAF2E71CE703204D
:104DCC0020E70320232838B504460D460AD8FF29CE
:104DDC0008D0FFF7B9FF28B129462046BDE8384076
:104DEC00FFF7EAB938BD38B504460D46FFF7ECF9C4
:104DFC00FF2810D0062804D84D2323FA00F0C3074F
:104E0C0009D42046FFF7A0FF28B129462046BDE86B
:104E1C003840FFF7E1B938BD10B50446FFF7D4F9B7
:104E2C00031FDBB2012B08D92046FFF78DFF20B101
:104E3C002046BDE81040FFF7D7B9002010BD7047E1
:104E4C0038B50A4B0360012304464361084920200E
:104E5C0000F074F8202560600549A560284600F034
:104E6C006DF8C4E90305204638BD00BF18000100E9
:104E7C0068520B0030B50E4D2978BFF35B8F11F0E3
:104E8C00010487B011D12846FFF701F968B16846D3
:104E9C00FFF7D6FF6A4621460648FFF7B3FB2846C4
:104EAC00FFF7FAF8044800F04BF8024807B030BDA1
:104EBC002CE7032030E703204B4E0B00704700001B
:104ECC0038B5044614252A46002100F04DF82580FB
:104EDC004025074925812846258200F02FF80449F2
:104EEC006060284600F02AF8E060204638BD00BF1C
:104EFC0068520B0030B50E4D2978BFF35B8F11F063
:104F0C00010487B011D12846FFF7C1F868B101A898
:104F1C00FFF7D6FF01AA21460648FFF797FD284662
:104F2C00FFF7BAF8044800F00BF8024807B030BDA0
:104F3C0044E7032048E70320C94E0B00FFF7A3B852
:104F4C00002301461A46184600F04CB80A44914218
:104F5C0000F1FF3300D1704710B511F8014B03F885
:104F6C00014F9142F9D110BD02440346934200D146
:104F7C00704703F8011BF9E738B5104B1D68AB6B94
:104F8C000446B3B91820FFF7ABFA0246A86320B960
:104F9C000B4B0C484221FFF7B3FA0B490B4BC0E902
:104FAC0000130B4B83600B23838100210120C2E98A
:104FBC000401AB6B00221C615A6138BD44E603202E
:104FCC0069520B0080520B000E33CDAB34126DE6E0
:104FDC00ECDE0500034613F8012B002AFBD1181A4E
:104FEC00013870472DE9F843DFF8B8800646D8F849
:104FFC0000001F460D46914600F056F8254B1C68E4
:10500C0034B9254C1C60254B13B11B68C4F888308F
:10501C0063681F2B07DDD8F8000000F047F84FF04D
:10502C00FF30BDE8F8834EB3D4F8880088B91C4B28
:10503C0023B9D8F8000000F038F8F0E74FF484708A
:10504C00FFF74EFA0028F4D00023C0E94033C4F82F
:10505C008800636840F8239001229A4000EB83019A
:10506C00D0F800311343C0F80031022EC1F8807023
:10507C0002BFD0F804311343C0F804316368D8F888
:10508C0000005A1C0233626044F8235000F00EF802
:10509C000020C6E7E8E703205CE7032000000000DF
:1050AC00ED440B00A8E603207047704770470000E2
:1050BC001D400B0059400B0081400B0085400B003C
:1050CC0000000000436F6E6E656374207468652089
:1050DC006172676F6E20696E746F207468652063EF
:1050EC006F6D70757465722E00000000000000007A
:1050FC00000000009B450B0091450B0087450B0001
:10510C007D450B0071450B0065450B008D470B0071
:10511C0095470B0059450B0051450B0047450B00BB
:10512C003D450B00C5470B000000000000000000CF
:10513C00B9450B0003460B00DB450B00BB450B00D0
:10514C00E3450B00EB450B00F3450B00FB450B0057
:10515C0000000000000000005D460B004D460B00F7
:10516C004F460B0061707000000000000000000052
:10517C004D470B0057470B0061470B006B470B006B
:10518C0075470B0081470B008D470B0095470B00B3
:10519C009D470B00A9470B00B1470B00BB470B0009
:1051AC00C5470B0025592D256D2D25645425483AEE
:1051BC00254D3A2553257A0061736374696D65003A
:1051CC000000000000000000DD490B00494A0B0004
:1051DC00214A0B00B1480B00F1490B000D4A0B00A2
:1051EC00FF490B001B4A0B00DF490B00E3490B0086
:1051FC000000000000000000954A0B00FD4A0B0067
:10520C00D34A0B00B1480B00C54A0B00974A0B0060
:10521C00A74A0B00F74A0B00B74A0B008F4A0B004A
:10522C000000000000000000FF4B0B00F54B0B00D2
:10523C00EB4B0B00A14B0B00DF4B0B00D34B0B00CC
:10524C008D470B0095470B00C74B0B00BF4B0B005A
:10525C00B54B0B00AB4B0B00C5470B000052454543
:10526C004E54206D616C6C6F632073756363656560
:10527C00646564002F746D702F6A656E6B696E7354
:10528C002D4743432D31302D706970656C696E6507
:10529C002D34385F32303230313132345F31363088
:1052AC00363138303633392F7372632F6E65776C25
:1052BC0069622F6E65776C69622F6C6962632F73FC
:1052CC0074646C69622F72616E642E63000000005E
:1052DC006D410B002D450B00A5450B003D470B0008
:1052EC009D480B0085490B00A5490B00C9490B00D3
:0452FC00094C0B004E
:10530000040000001400000003000000474E550098
:105310002692DD4D80546E0D87E3C3664CD174999F
:045320005CC0AE5D62
:045324000000000085
:10532800C4510B0048E60320000000000000000004
:105338000000000000000000000000000000000065
:105348000000000000000000000000000000000055
:105358000000000000000000000000000000000045
:105368000000000000000000000000000000000035
:105378000000000000000000000000000000000025
:0C5388000000000000000000ECE7032023
:10539400FFFFFFFF00000102030405060708090AD6
:1053A4000B0C0D0E0F101112131415161718191AD1
:0853B4001B1C1D1E1F20280018
:0453BC0078563412D9
:04000003B000401CED
:00000001FF
